:020000040000FA
:10000000B00800109D020000A1020000A302000041
:10001000A5020000A7020000A902000000000000E5
:10002000000000000000000000000000AB02000023
:10003000AD02000000000000AF020000B146000069
:10004000B3020000B3020000B3020000B3020000DC
:10005000B3020000B3020000B3020000B3020000CC
:10006000B3020000B3020000B3020000B3020000BC
:10007000B30200002919000031100000991500009A
:10008000B3020000B3020000B30B0000ED0B000050
:10009000E90F000055080000B3020000B3020000A1
:1000A000B3020000AD1E0000B3020000B302000066
:1000B000A54C0000834C00002F4C0000014C0000B8
:1000C00000F002F800F0BFF80CA030C8083824187F
:1000D0002D18A246671EAB4654465D46AC4201D180
:1000E00000F0B1F87E460F3E0FCCB64601263342F3
:1000F00000D0FB1AA246AB46334318473C740000BD
:100100005C740000103A02D378C878C1FAD852075C
:1001100001D330C830C101D504680C6070470000BD
:100120000023002400250026103A01D378C1FBD813
:10013000520700D330C100D50B60704710B56E294F
:1001400002D105F003FD10BD702902D104F0D1FEEB
:1001500010BD662902D106F0FDFC10BD652902D153
:1001600006F0F8FC10BD672902D106F0F3FC10BDC3
:10017000612902D1C046C04610BD03681B0A01D3E5
:1001800080231943692902D104F03EFE10BD642981
:1001900002D104F039FE10BD752902D104F034FEFD
:1001A00010BD6F2902D105F0EDFD10BD782902D1F7
:1001B00004F08CFE10BDE92902D105F089FD10BDC7
:1001C000E42902D105F084FD10BDF52902D105F026
:1001D0007FFD10BDEF2902D105F0E0FD10BDF8292B
:1001E00002D104F081FE10BD0368DB0901D3802336
:1001F0001943632902D105F0EDFC10BD732902D12A
:1002000005F0F0FC10BDE32902D106F038F810BD6E
:10021000F32902D106F03BF810BD002010BD1FB538
:10022000C046C04606F080F804000020002106F019
:1002300023FC401C60600020002106F007FCE06009
:100240001FBD10B510BD06F048F81146FFF7E7FFD7
:1002500004F017FA06F068FB03B4FFF7F2FF03BCE3
:1002600000F056FC70B505460C46164602E00FCC71
:100270000FC5103E102EFAD2082E02D303CC03C5B0
:10028000083E042E07D301CC01C5361F03E02178B8
:100290002970641C6D1C761EF9D270BD0848004799
:1002A000FEE7FEE7FEE7FEE7FEE7FEE7FEE7FEE726
:1002B000FEE7FEE703480449024A044B704700008A
:1002C000C1000000B0060010B0080010B006001019
:1002D000704700000FB4054910B503AA029805F055
:1002E00085FC10BC08BC04B0184700001C000010BE
:1002F000704770477047000000000000FFFFFFFFDD
:100300003249334A11600121324A116051600021A3
:1003100051600121516000BF2E494968C907C90FCA
:100320000029F9D02B4940398868400A400203214E
:100330000143284A403A91602749896B80229143C2
:10034000254A916300BF23494039C968C907C90FCD
:100350000029F8D003211F4A1163012151630021B4
:1003600051630121516300BF1A49496BC907C90F85
:100370000029F9D00121174A9163154909688900BC
:10038000164A116011460968154A1160704700B598
:100390000220104940390860002008620E48806B36
:1003A000202188430C498863002300E05B1CFF2B5D
:1003B000FCD9FFF7A5FF0748403000680121090478
:1003C000084304494031086000BD0000001BB7002D
:1003D000000000104080044000820440040000102F
:1003E00008000010A0211C4A51621B49C03108615D
:1003F0000121194AC032516100215161012151612D
:1004000000BF1549C0314969C907C90F0029F8D093
:100410000121114AC03291611049896B40229143F8
:100420000E4A916370470C49C031086201210A4AA3
:10043000C0325162002151620121516200BF064960
:10044000C031496AC907C90F0029F8D00121024A01
:10045000C032916270470000008004400082044076
:1004600010B5F548006840210843F34908601F2093
:1004700000F0DBF91E2000F0D8F91D2000F0D5F9BE
:100480001C2000F0D2F910BD70B5049C002806D0E5
:10049000012838D002286AD003287BD19CE0002AAA
:1004A00018D1E64D6D6801268E40B543E34E756068
:1004B000002B07D13546AD6801268E40B543DF4E8F
:1004C000B5600EE0DD4DAD6801268E403543DB4E54
:1004D000B56006E0D94D6D6801268E403543D74E94
:1004E0007560002C07D1D54DED6801268E40B543CF
:1004F000D24EF56006E0D14DED6801268E403543C1
:10050000CE4EF5609DE0002A18D1CD4D6D680126D4
:100510008E40B543CA4E7560002B07D13546AD6895
:1005200001268E40B543C64EB5600EE0C44DAD68A1
:1005300001268E403543C24EB56006E0C04D6D6861
:1005400001268E403543BE4E7560002C07D1BC4D50
:10055000ED6801268E40B543B94EF56006E0B84D12
:10056000ED6801268E403543B54EF56069E0002AFE
:1005700019D1B44D6D6801268E40B543B14E7560FA
:10058000002B08D13546AD6801268E40B543AD4EEF
:10059000B5600FE054E0AB4DAD6801268E403543A9
:1005A000A84EB56006E0A74D6D6801268E40354324
:1005B000A44E7560002C07D1A24DED6801268E4037
:1005C000B543A04EF56006E09E4DED6801268E40D5
:1005D00035439C4EF56034E0002A18D19A4D6D6881
:1005E00001268E40B543984E7560002B07D13546E5
:1005F000AD6801268E40B543934EB5600EE0924D36
:10060000AD6801268E4035438F4EB56006E08E4DB5
:100610006D6801268E4035438B4E7560002C07D1E6
:10062000894DED6801268E40B543874EF56006E0A2
:10063000854DED6801268E403543834EF56000E020
:1006400000BF00BF70BD002806D001280CD00228D2
:1006500012D0032820D117E0784A126901238B4079
:100660001A43764B1A6118E0754A126901238B40D0
:100670001A43734B1A6110E0724A126901238B40CE
:100680001A43704B1A6108E06F4A126901238B40CC
:100690001A436D4B1A6100E000BF00BF704700288D
:1006A00006D001280CD0022812D0032820D117E050
:1006B000624A126901238B409A43604B1A6118E029
:1006C0005F4A126901238B409A435D4B1A6110E027
:1006D0005C4A126901238B409A435A4B1A6108E025
:1006E000594A136901228A409343574A136100E033
:1006F00000BF00BF704710B502460020002A06D098
:10070000012A0DD0022A14D0032A24D11AE04B4B1F
:100710009B6901248C402340002B00D001201BE06A
:10072000474B9B6901248C402340002B00D00120C3
:1007300012E0444B9B6901248C402340002B00D0E5
:10074000012009E0404B9B6901248C402340002B91
:1007500000D0012000E000BF00BF10BD002806D07F
:1007600001280CD0022812D0032820D117E0334AE8
:10077000D26901238B401A43304BDA6118E0304ACA
:10078000D26901238B401A432D4BDA6110E02D4AC8
:10079000D26901238B401A432A4BDA6108E02A4AC6
:1007A000D26901238B401A43274BDA6100E000BF76
:1007B00000BF704730B513468B408400234D2D5940
:1007C00001248C40A4002B5130BD024690001F4BE9
:1007D0001B580120884080001858704730B5002A07
:1007E00011D08300194CE3580124E4031B191B6842
:1007F00001248C4023438400144D2C590125ED0322
:100800006419236010E08300104CE3580124E403D2
:100810001B191B6801248C40A34384000B4D2C59E9
:100820000125ED036419236030BDC206D20E0121FB
:100830009140074A1160704780800440008000505A
:10084000008001500080025000800350646B000063
:1008500000E100E070B500BF894A9268D0B2401054
:100860004007400F032822D1854A5269D1B29E2207
:100870000A40002A05D0834A1160814A1268D3B227
:1008800070BDCA07D20F002A3FD07D4C2468E5B264
:100890007D4C2268541C7C4E34607C4CA5543246FE
:1008A0001268402A31D30022344622602DE002280B
:1008B00011D1734C2468E5B2734C2268541C724EFB
:1008C0003460724CA55432461268402A1DD300226F
:1008D0003446226019E0062807D16A4A1268FF24CC
:1008E00001342243674C22600FE001280DD1644A95
:1008F0005269D1B220220A40002A03D00122644C5E
:10090000227002E00022624C227000BFB8E7F8B506
:10091000044601205E49087000205B4908601520EC
:10092000012181405B4A116000BF5B48406AC008FA
:10093000C000594948620846406A012108435649A7
:1009400048620846806AC008C00088620846806A1B
:100950000121084350498862504800680121090379
:1009600008434E4908600120886183204449C860DB
:100970004A48866931464A48006804F0F5FB070991
:100980002146384604F0F0FB0546280A3C494860F9
:10099000E8B208600320C8600720886008464669FE
:1009A00000BF37484069602108406028F9D101E064
:1009B0003348066832484069C007C00F0028F7D1A5
:1009C000152001218140334A803A116000BF052083
:1009D0002B494860F8BD0BE000BF294A526920232B
:1009E0001A40002AF9D00278254B1A60401C491E93
:1009F0000029F1D1704700BF2149496920221140E7
:100A00000029F9D01E490860704700B5034603E08D
:100A100018785B1CFFF7EFFF18780028F8D100BDAD
:100A20000FB400B59BB01DA80090642101A8009BE5
:100A30001C9A04F05FF901A8FFF7E7FF002000907F
:100A40001BB008BC04B018470146164800680E4A9F
:100A50001268904211D00D48124A1268805C0870EA
:100A600010480068401C0F4A10601046006840287B
:100A700001D300201060012070470020FCE7000037
:100A8000008000400C00001014000010E400001072
:100A90001000001080E100E08040044080800440AD
:100AA000080000101800001000BF1F4949692022EB
:100AB00011400029F9D01C490860704710B5034661
:100AC0000C461846FFF7F0FF10BD00BF174800683E
:100AD0000028FBD006201449486000201349086014
:100AE00007201149486012480078704710B5044645
:100AF000FFF7EBFF0346FFF7D7FF10BD00B5034636
:100B00001846FFF7D1FF00BD01460020C0437047E3
:100B100000BFFEE700BF04484069C007C00F0028BF
:100B2000F9D00148006870470080004014000010B0
:100B3000E400001070B504460D46002C1BD10220C5
:100B4000FE4948600020C8607D21C900FC4800685B
:100B500004F00AFB6843F9498861FF20086004201B
:100B600048610120486000BFF4484068C007C00FDA
:100B70000028F9D11CE0012C1AD10220F14948606B
:100B80000020C8607D21C900ED48006804F0ECFA3F
:100B90006843EC498861FF20086004204861012017
:100BA000486000BFE7484068C007C00F0028F9D17F
:100BB00070BDE2480068C007C00F002807D00120C0
:100BC000DE490860E0480068401CDF490860DB48F7
:100BD000006810210840002807D01020D74908607D
:100BE000DA480068401CD94908607047D548006859
:100BF000C007C00F002807D00120D2490860D448A0
:100C00000068401CD2490860CE48006810210840A6
:100C1000002807D01020CB490860CE480068401C4F
:100C2000CC4908607047002803D10121C34A5160B4
:100C300002E00121C34A51607047002803D100211E
:100C4000BE4A516002E00021BE4A51607047014631
:100C5000002906D1B94A506802221043B74A5060B1
:100C600005E0B84A506802221043B64A5060704707
:100C700070B504460D46002C47D1B74800680121E5
:100C800049020843B4490860B448006AC008C0007B
:100C9000B24908620846006A02210843AF49086267
:100CA0000846406AC008C00048620846406A0221FF
:100CB0000843AA4948620846806AC008C0008862A2
:100CC0000846806A02210843A4498862A348803804
:100CD0000069C008C000A149803908610846006960
:100CE000022108439D498039086100209649086027
:100CF00096490860914885610520904988620320E3
:100D00004861122000F063F922E0012C20D19248C2
:100D10000068A10208439049086090484069C008F3
:100D2000C0008E49486108464069022108438B494A
:100D300048610020864908608649086081488561CD
:100D400005208049886203204861132000F03FF9A4
:100D500070BD70B504460D46002C12D17E48006867
:100D60000121490208437C49086000207649086057
:100D700072488561032071494861122000F027F90B
:100D800012E0012C10D174480068A1020843724996
:100D9000086000206E4908606A488561032069493F
:100DA0004861132000F013F970BD30B505460C46BC
:100DB00013462846FFF741FF012D66D166480068BB
:100DC000A902084364490860B320C00018435D4984
:100DD000C863D807C00F00280ED060484038C06BE9
:100DE000C008C0005D494039C8630846C06B032194
:100DF00008435A494039C8630220184000280BD0E4
:100E000056480068C008C000544908600846006899
:100E100003210843514908600420184000280BD0E2
:100E20004E480069C008C0004C4908610846006986
:100E300003210843494908610820184000280BD0C5
:100E400046484069C008C0004449486108464069B6
:100E50000221084341494861012018433949403182
:100E600048633F4804600068364948623C4800686F
:100E7000400888613A4800684008C86138480068FE
:100E800040080862022048616FE033480068012191
:100E90004902084330490860CB20C0001843274965
:100EA000C8630220184000280BD02C48806AC00874
:100EB000C0002A4988620846806A022108432749FF
:100EC00088620420184000280ED024488038006929
:100ED000C008C00021498039086108460069022124
:100EE00008431E49803908610820184000280ED0A8
:100EF0001A484038406BC008C00018494039486360
:100F00000846406B032108431449403948630820D0
:100F100018430A4940314863124804600068074991
:100F200048621048006888610E4800684008C8613F
:100F30000C48006840080862081515E000400140B0
:100F40000800001000800140240000102C00001058
:100F500028000010300000108080044080400440D1
:100F60003800001034000010486130BD002816D051
:100F7000002906D0012907D0022908D003290CD165
:100F800008E0164B9A6109E0144BDA6106E0134B56
:100F90001A6203E0114B5A6200E000BF16E000291C
:100FA00006D0012907D0022908D003290CD108E076
:100FB0000B4B9A6109E00A4BDA6106E0084B1A62B2
:100FC00003E0074B5A6200E000BF00BF7047C20653
:100FD000D20E01219140034A116070470080014008
:100FE0000040014000E100E0F949C869C107C90FAC
:100FF000002907D0F7490968491CF64A1160012108
:10100000F34A116202210140002907D0F249096820
:10101000491CF14A11600221ED4A1162042101408C
:10102000002904D0ED490968491CEC4A1160704759
:10103000EB49C869C107C90F002907D0E949096808
:10104000491CE84A11600121E54A11620221014070
:10105000002907D0E4490968491CE34A11600221CC
:10106000DF4A116204210140002904D0DF490968E8
:10107000491CDE4A1160704710B50446002C47D168
:10108000DB48406801210843D9494860D84880308E
:101090000068C9140843D6498031086002204861BD
:1010A000D448006AC008C000D24908620846006AF5
:1010B00001210843CF4908620846406AC008C000C1
:1010C00048620846406A01210843CA494862012033
:1010D000C84940310863C7490863C5488030006883
:1010E00040210843C24980310860C2484038C06985
:1010F000C008C000BF494039C86101220221002058
:10110000FFF76CFB012202210020FFF753FB54E0A4
:10111000B748406804210843B5494860B448803066
:101120000068012189040843B14980310860022028
:10113000C861B048C069C008C000AE49C86108466F
:10114000C06902210843AB49C861AA484030C06861
:10115000C008C000A7494031C8600846C0680221E5
:101160000843A4494031C860A2484038806AC0089A
:10117000C000A049403988620846806A02210843BD
:101180009C49403988629A48803000684021084371
:10119000974980310860974840388068C008C0008F
:1011A000944940398860012200210220FFF716FB94
:1011B000012200210220FFF7FDFA10BD10B5044600
:1011C000002C69D18A484068012108438849486059
:1011D000874880300068C914084385498031086019
:1011E000022048618348006AC008C0008149086243
:1011F0000846006A012108437E4908620846406AA1
:10120000C008C00048620846406A01210843794985
:10121000486202207749403108637649C8607448C3
:10122000803000684021084371498031086071486E
:101230000068C008C0006F49086001220421022034
:10124000FFF7CCFA012204210220FFF7B3FA694824
:1012500040380068C008C000664940390860012273
:1012600006210220FFF7BAFA012206210220FFF729
:10127000A1FA60484038006AC008C0005D494039A2
:101280000862012207210220FFF7A8FA01220721A4
:101290000220FFF78FFA54E05548406804210843C4
:1012A000534948605248803000680121890408434E
:1012B0004F49803108600220C8614E48C069C008AB
:1012C000C0004C49C8610846C06902210843494929
:1012D000C86148484030C068C008C0004549403136
:1012E000C8600846C0680221084342494031C860CE
:1012F00040484038806AC008C0003E494039886292
:101300000846806A022108433A49403988623848D1
:1013100080300068402108433549803108603548F5
:1013200040388068C008C0003249403988600122D6
:1013300000210220FFF752FA012200210220FFF7CC
:1013400039FA10BD70B5054600BF002D16D12A48E8
:101350001F490860FE200861002404E01C488068E2
:10136000C6B2601CC4B2082CF8DB142000F006F9E9
:101370000220174948600320486115E01E481849BB
:10138000086002200861002404E015488068C6B2A5
:10139000601CC4B2082CF8DB0E2000F0EFF802202D
:1013A0000F4948600320486170BDF8B507460D46F7
:1013B000164600980090002F31D1681E07210902BF
:1013C0000843034908600846066100241CE0000049
:1013D0000000044040000010440000103C000010D9
:1013E000008005404C000010500000104800001024
:1013F00000800440404004400707000063488068C4
:10140000C0B20090601CC4B2082CF7DB142000F0BE
:10141000B5F802205D4948600320486119E0681E64
:101420000721090208435A4908600846066100245A
:1014300005E057488068C0B20090601CC4B2082C18
:10144000F7DB0E2000F09AF8022051494860032093
:101450004861F8BD70B500BF00232DE0002815D10C
:1014600000BF4A4DED6812263540022DF9D10D78A6
:10147000464EB560491C00BF444DED68142635400A
:10148000042DF9D1414DAD68ECB214E000BF404DE0
:10149000ED6812263540022DF9D10D783C4EB5602D
:1014A000491C00BF3A4DED6814263540042DF9D192
:1014B000374DAD68ECB25B1C9342CFD370BD30B5F5
:1014C00000231FE000280ED1FF24304DAC6000BF88
:1014D0002E4CE46814252C40042CF9D12B4CA46824
:1014E0000C70491C0DE0FF24294DAC6000BF284C56
:1014F000E46814252C40042CF9D1254CA4680C7008
:10150000491C5B1C9342DDD330BD0246002A1AD130
:1015100000BF1E48C068122318400228F9D11B489A
:10152000816000BF1948C068102318400028F9D115
:1015300000BF1648C068142318400428F9D1134886
:10154000806880B2704700BF1148C06812231840FD
:101550000228F9D10E48816000BF0D48C0681023F1
:1015600018400028F9D100BF0948C068142318406A
:101570000428F9D10648806880B2E3E7C206D20E9B
:1015800001219140034A11607047000000000440AF
:101590000080054000E100E010B5012080074068B0
:1015A000C1B24807400F00286FD1C810030005F0F2
:1015B00021FA0CB3071523AB393AB464AC7496B373
:1015C0000020AC4A1060AC4800780122920790607D
:1015D000282090610120A94A1060A2E00020A84ABA
:1015E0001060A54800780122920790602820906141
:1015F0000220A24A106094E0A048006801280DD1A2
:101600009C4A1068421C9B4B1A609E4A1268125CEE
:1016100001239B079A600420984A10600820C206A4
:1016200090617EE000BF93480068974A126890423C
:101630000ED2904A1068421C8E4B1A60914A126872
:10164000125C01239B079A6004208C4A106010E012
:101650008E480068002806D0202042061060032033
:10166000864A106005E00520844A1060102082063A
:1016700010600820C206906153E084480068012889
:1016800004D104200207906103E045E00420020732
:1016900010600820C206906143E001229207926820
:1016A000D3B2774A1068421C754C2260784A12689F
:1016B000135420460068754A1268904205D20420EF
:1016C0006E4A10600207106005E005206B4A10604A
:1016D0000420020790610820C206906121E00122E7
:1016E00092079268D3B2664A1068421C644C22602A
:1016F000674A126813540520604A10601020820661
:101700001060082090610CE000BF0820C2069061C4
:1017100005205A4A106004E000BF0820C20690610C
:1017200000BF00BF10BD00210020202253061A6018
:101730000BE0524A1268012A01D1012006E0554A05
:10174000914201D3002001E0491CF2E700BF70473D
:101750001020810608600820886100BF01208007F2
:101760000068102108400028F8D10120704710B50A
:1017700002464948406802231843474B5860464890
:101780008030006820231843434B8033186043485F
:10179000006B80098001414B18631846006B0123E0
:1017A00018433E4B18631846406B8009800158630C
:1017B0001846406B01231843384B58636C201B04B8
:1017C0009861FF20813058611861022A01D15007C9
:1017D000C1600F2001238340314C236000BF4020B3
:1017E00003061860012010BD00B5002023490860E1
:1017F000234908601F490860FFF795FF012803D0BF
:10180000FFF7A6FF002000BD06E01C480068052881
:1018100002D1FFF79DFF00E0F7E700BF0120F2E7EC
:1018200070B506460C461546012030431249087033
:101830001748046015480560012013490860FFF748
:10184000D3FF124800681149086070BD70B50646A4
:101850000C461546084806700A4804600A480560A8
:1018600000200A490860FFF7BFFF074800680649E3
:10187000086070BD780000107C000010540000105B
:101880007400001064000010700000106C00001064
:1018900068000010FFFFFF0000800440004004408B
:1018A00000E100E030B5024600BFC84B1B680124D0
:1018B000E4032340002BF8D17F23C44C6360531C06
:1018C000236000BFC14B1B680124E4032340002BAD
:1018D000F8D118235343BE4C1819BC4B5B69012443
:1018E000A4032340002B08D0B84B19691C46646937
:1018F000B84D2C402404214303E0B44B5B69DB0466
:10190000590D02C0B14B9B691B071B0F08C0AF4BA1
:10191000DB6908C0AD4B1B6A08C0AC4B5B6A08C0F2
:10192000AA4B9B6A08C030BD70B500BF36E00120ED
:10193000C0033040002816D0A448803845684020B5
:101940002840002805D0A4480068401CA24908602F
:1019500070BD80202840002820D0A0480068401C8E
:101960009E490860F4E76807400F002816D1740408
:10197000640C002C12D0202C10D894488038406879
:1019800010218843914980394860611EC8B2FFF731
:1019900089FF0121601E8000914A11508B488038D8
:1019A0000669002EC3D100BFD2E70021002059E014
:1019B000F322864B803B5A6200291BD100229A6297
:1019C000884ADA6200221A63C21DF93292000123AA
:1019D000DB031A437D4B803B5A63C207D20F002AB8
:1019E00002D1814A9A6326E0804A784B803B9A6311
:1019F000012120E07E4A754B803B9A627D4ADA6283
:101A000001221205821892B21A630122120582186D
:101A1000120C03239B031A436C4B803B5A63C2078F
:101A2000D20F002A02D1704A9A6304E06F4A674BD2
:101A3000803B9A6300210022644B803BDA63634B56
:101A4000403B1A605A609A60421C604B803B1A62AD
:101A500000BF5E4A803A126A0123DB031A40002A63
:101A6000F7D1401C2028A3D3704710B50446624824
:101A7000406808210843604948605F48803000683A
:101A80000121490408435C49803108604F4880388F
:101A90000068C007C00F002807D14C488038006894
:101AA00001210843494980390860052053490860ED
:101AB000464880380068402108434449803908601E
:101AC0004F48C8600020886108460068402188436C
:101AD0003E498039086008460068400840000860B8
:101AE00000BF3A4880380068C007C00F0028F8D10E
:101AF000FFF75BFF0D2001218140424A116000BFCA
:101B00003248803800680E21084330498039086027
:101B100010BDF0B503460C46002A01D100BFFEE718
:101B200002CA002C02D0CE00B00800E0084620CA4D
:101B3000082D00D908250126B6070E40002E0ED12B
:101B4000860005277F033E43204F803F7E630026AB
:101B50003E63204EF61EFE620026BE620CE0060CBE
:101B600007277F033E43194F803F7E6386B23E6363
:101B7000254EFE621E4EBE622E07360F2327FF0142
:101B80003E43124F803FBE6340CAFE6340CA0F4FC0
:101B9000403F3E6040CA7E601668BE60F7260B4F2D
:101BA000803F7E62002C02D09E1C3E6203E05E1CE1
:101BB000064F803F3E6200BF044E803E366A0127DA
:101BC000FF033E40002EF7D1F0BD0000800005402D
:101BD000A4010010FF5F00008400001080000010CE
:101BE00024010010FC1F0000881000008814000071
:101BF000FFFF0000FF9F00000080044080010540BF
:101C00000123000000E100E0FFDF000070B50546A1
:101C10009348806B102188439149886391480068FC
:101C20000121490308438F490860002404E0002093
:101C3000A1008D4A5050641C082CF8D38B48406991
:101C40008F2188438949486108464069012108433A
:101C50008649486185484038C06A8F218843834956
:101C60004039C8620846C06A012108437F494039AB
:101C7000C8627E4880698F2188437C498861084614
:101C800080690121084379498861294678480068BC
:101C900003F06AFA401E000276490843764908605C
:101CA00070BD70B505466E48806B102188436C4945
:101CB00088636C480068012149030843694908604A
:101CC000002404E00020A100674A5050641C082C46
:101CD000F8D366484038406B8721884363494039D0
:101CE00048630846406B0221084360494039486315
:101CF0005E480068872188435C49086008460068A0
:101D0000022108435949086029465948006803F0F0
:101D10002BFA401E0002574908435749086070BD1E
:101D200030B50146082900DB002153480068000A4D
:101D30000002514C206020460468012088400125A3
:101D40002D06284304434C48046008E088004A4CB0
:101D500000190269D00FC007002800D000E0F5E7A5
:101D600000BF4548006807242406A043424C206079
:101D7000012080071040002801D0002030BD100451
:101D8000830D1846FAE73C48006807210906084019
:101D9000002804D03848006888433749086036482E
:101DA0000068FF21084334490860084600680121A3
:101DB00009040843304908607047F0B58DB0074604
:101DC0001C222E4905A8FEF74DFA2D48FFF769FFA2
:101DD0000020FFF7A5FF0446204603F0FEFC054661
:101DE000284A294B03F0FCFC0022284B019100906B
:101DF00003F0A6FA0391029003F064FA04902449D8
:101E0000049804F04FFE054603F01EFE04463C60B5
:101E1000234620A2102105A802F088FF05AA002170
:101E2000062000F010FC0DB0F0BD10B588B00446DF
:101E3000202212491C316846FEF714FA0320FFF7EE
:101E40006FFF206016A210216846236802F06EFF23
:101E50006A460021072000F0F6FB08B010BD000024
:101E60000082044080800440A404001080400440AC
:101E7000080000100100200000C00140846B000039
:101E8000009F24006666666666660A4000F88F401A
:101E9000000020416164763A202564202000000083
:101EA0006265743A20256420000000004249C96838
:101EB000424A116003E04049C968404A11603F4905
:101EC00009683F4A9142F6D2AA213B4A91605521C6
:101ED0009160002000E0401C0121C9048842FAD32F
:101EE0003549C968354A116003E03349C968334A46
:101EF000116032490968012252029142F5D32E49FC
:101F00000968042291432C4A11601146096808228D
:101F10009143294A116070472A4909680122D20376
:101F20001143284A11603F21264A803A51622649CE
:101F3000896B40229143244A91630221214A403215
:101F4000116101215161002151610121516100BFE5
:101F50001C4940314969C907C90F0029F8D08021BF
:101F6000184A403291610021144A1160192101225E
:101F70008A40164B1A6000BF15490F4A5160091379
:101F8000516001211160AA219160552191600020CA
:101F900000E0401C0121C9048842FAD30849064ADE
:101FA0005161112111600B4991617047AA200249CA
:101FB0008860552088607047004000408C00001009
:101FC000FF010000808004400082044000E100E046
:101FD000FFFF3F00FF020000F1B582B02148846995
:101FE0004069019020490298484300900199009867
:101FF00003F0BAF807460199009803F0B5F80D46CA
:10200000002F0ED000260AE000BF16488069A042CB
:10201000FBD300BF13488069A042FBD8761CBE42A8
:10202000F2D3002D1DD0A54206D200BF0D48806915
:10203000611B8842FAD814E0A54205D100BF0948C7
:102040008069A042FBD30CE000BF06488069A04233
:10205000FBD300BF034881692A1B0198801A814283
:10206000F8D8FEBD00E000E080BB000010B5002203
:1020700003211046FEF7B2FB002204210120FEF7E7
:10208000ADFB002208210120FEF7A8FB0022092158
:102090000120FEF7A3FB00220A210120FEF79EFB90
:1020A00000220B210120FEF799FB10BD10B508217D
:1020B0000120FEF78AFB002801D1012010BD092173
:1020C0000120FEF782FB002801D10220F6E70A2159
:1020D0000120FEF77AFB002801D10320EEE70B2157
:1020E0000120FEF772FB002801D10420E6E703215E
:1020F0000020FEF76AFB002801D10520DEE704215D
:102100000120FEF762FB002801D10620D6E700205F
:10211000D4E7000010B5012209210220FEF75EFB82
:10212000012209210220FEF745FB01220A2102209B
:10213000FEF754FB01220A210220FEF73BFB01229D
:102140000B210220FEF74AFB10BD70B50446202C7F
:1021500001DBFF2403E0E006C00E11490C5C002205
:1021600009210220FEF726FB002511E000220A21AA
:102170000220FEF71FFBE207D20F0B210220FEF721
:1021800019FB641001220A210220FEF713FB6D1CCB
:10219000082DEBD3012209210220FEF70BFB70BDB5
:1021A000D06B000000BF0146421ED0B20029FAD118
:1021B000704770B50346002510E000240AE00026B1
:1021C00004E0CB20FFF7EEFF701CC6B20F2EF8DB49
:1021D000601CC4B2832CF2DB681CC5B29D42ECDBF0
:1021E00070BD10B50446002205210220FEF7E2FA78
:1021F000002204210220FEF7DDFA21460020FFF72D
:1022000084F9012204210220FEF7D4FA01220521DB
:102210000220FEF7CFFA10BD10B5044601220521B9
:102220000220FEF7C7FA002204210220FEF7C2FABC
:1022300021460020FFF769F9012204210220FEF760
:10224000B9FA012205210220FEF7B4FA10BD70B5DB
:1022500004462546E117090F491909110901611AB8
:10226000C8B2FFF7BEFF2546E117090F491909114A
:102270001031C8B2FFF7B5FF70BD10B5044620207D
:10228000FFF7AFFF2046FFF7ACFF10BD70B5054666
:102290000C462120FFF7A5FF2846FFF7A2FF2046A6
:1022A000FFF79FFF70BD70B505460C462220FFF773
:1022B00098FF2846FFF795FF2046FFF792FF70BD75
:1022C00010B50446402121430846FFF78AFF10BDA0
:1022D00010B504468120FFF784FF2046FFF781FFF9
:1022E00010BD10B504468D20FFF77BFF1021214360
:1022F0000846FFF776FF10BD10B50446A021214324
:102300000846FFF76EFF10BD10B50446A421214317
:102310000846FFF766FF10BD10B50446A62121430D
:102320000846FFF75EFF10BD10B50446A820FFF772
:1023300058FF2046FFF755FF10BD10B50446AE21EB
:1023400021430846FFF74DFF10BD10B50446B021EC
:1023500021430846FFF745FF10BD10B50446C021D4
:1023600021430846FFF73DFF10BD10B50446D320BA
:10237000FFF737FF2046FFF734FF10BD10B50446C6
:10238000D520FFF72EFF2046FFF72BFF10BD10B51D
:102390000446D920FFF725FF2046FFF722FF10BD96
:1023A00010B50446DA20FFF71CFF0221214308463E
:1023B000FFF717FF10BD10B50446DB20FFF711FF34
:1023C0002046FFF70EFF10BD10B5E320FFF709FF11
:1023D00010BD70B50646002410E02046FFF7B5FF9B
:1023E0000020FFF734FF002504E03046FFF714FF1C
:1023F000681CC5B2802DF8DB601CC4B2082CECDB75
:1024000070BD10B50020FFF7E4FF10BDFFB581B02F
:102410000D4616461F462C4615E02046FFF795FF51
:102420003846FFF714FF0020009006E00198FFF700
:10243000F3FE0098401CC0B200900A9900988842B0
:10244000F4DB601CC4B2701C8442E6DB05B0F0BD56
:1024500070B5002413E02046FFF777FF0020FFF758
:10246000F6FE002507E05520FFF7D6FEAA20FFF76D
:10247000D3FE681CC5B2402DF5DB601CC4B2082C2D
:10248000E9DB70BD70B50020FFF75FFF0020FFF7AC
:10249000DEFE002404E00120FFF7BEFE601CC4B293
:1024A000802CF8DB0720FFF750FF0020FFF7CFFE5E
:1024B000002404E08020FFF7AFFE601CC4B2802C33
:1024C000F8DB002411E02046FFF73FFF002508E07D
:1024D000E8B2FFF7BCFEFF20FFF79EFE28467F30E4
:1024E000C5B2802DF4DB601CC4B2082CEBDB70BDE0
:1024F000FFB581B007460D46012F02D0022F0BD148
:1025000004E0A8002818FE49441805E0681E810070
:102510004018FC49441800BF00BF0398FFF715FF9F
:102520000498FFF794FE002605E02078FFF774FE7C
:10253000641C701CC6B2052EF7DB0020FFF76CFE92
:1025400005B0F0BDFFB581B007460D461E462C46CE
:10255000334660210120039AFFF7CAFF0CE021787F
:1025600033463846039AFFF7C3FF641CB01DC6B25A
:102570002078002800D100E0F1E700BF05B0F0BDF1
:10258000FFB583B005460E4617460295344619E05E
:102590002046FFF7DAFE0698FFF759FE002001906B
:1025A0000AE002990878FFF737FE0298401C029073
:1025B0000198401CC0B201900C9901988842F0DB50
:1025C000601CC4B2781C8442E2DB07B0F0BDFFB5EA
:1025D00081B00D4614460498203881004018C8493F
:1025E00046180198FFF7B1FE002D0BD10020FFF730
:1025F0002EFE002C03D10020FFF70EFE02E0FF208C
:10260000FFF70AFE691CC8B2FFF721FE00270DE0A4
:10261000002C03D13078FFF7FFFD04E03178C94387
:10262000C8B2FFF7F9FD761C781CC7B2052FEFDBA7
:10263000002C03D10020FFF7EFFD02E0FF20FFF7A1
:10264000EBFD05B0F0BDF8B506460F461446002573
:10265000082E19DA08E023783A4629463046FFF773
:10266000B6FFA81D85B2641C2078002801D0012087
:1026700000E00020691C89B2802901DA012100E014
:10268000002108400028E6D1F8BDFFB581B015460D
:102690001F46A320FFF7A5FD0298FFF7A2FD2846DD
:1026A000FFF79FFD0198002802D0012825D111E0F5
:1026B00000240CE0E0B2FFF703FE002603E0C82090
:1026C000FFF770FD761C0A988642F8D3E419AC42F5
:1026D000F0D312E000240DE0291BC8B2FFF7F0FD93
:1026E000002603E0C820FFF75DFD761C0A988642AD
:1026F000F8D3E419AC42EFD300BF00BF0020FFF7CE
:10270000DFFD05B0F0BDF8B504460D4616461F4680
:10271000262121430846FFF764FD0020FFF761FDF5
:102720002846FFF75EFD3846FFF75BFD3046FFF7B2
:1027300058FD2F20FFF755FD0698FFF73AFDF8BD2D
:10274000F8B504460D4616461F46A320FFF749FD7F
:102750003846FFF746FD0698FFF743FD214629312D
:10276000C8B2FFF73EFD0020FFF73BFD2846FFF70C
:1027700038FD0898FFF735FD3046FFF732FD079822
:10278000FFF72FFD2F20FFF72CFD0998FFF711FD14
:10279000F8BD10B52E20FFF724FD10BD10B50120A7
:1027A000FFF7CBFD00240CE0E0B2FFF791FDC8205D
:1027B000FFF7F8FCC820FFF7F5FCC820FFF7F2FC94
:1027C000641CD02CF0D310BD10B5D0240DE0611ED8
:1027D000C8B2FFF77DFDC820FFF7E4FCC820FFF773
:1027E000E1FCC820FFF7DEFC641E002CEFD10020C6
:1027F000FFF7A3FD10BD10B50446002C02D0012C3C
:102800000ED106E00020FFF798FD0120FFF77CFDC8
:1028100006E00020FFF778FD0120FFF78EFD00BFE6
:1028200000BF10BD0120FFF76FFD0BE00120FFF797
:1028300084FD0220FFF7BDFC0020FFF77EFD022093
:10284000FFF7B7FCF2E710B50020FFF776FD802018
:10285000FFF794FD3F20FFF767FD0020FFF785FDA0
:102860000020FFF72DFD0020FFF73BFD0220FFF7C2
:1028700004FD0120FFF740FD0820FFF76EFD10204A
:10288000FFF78EFDCF20FFF723FD2220FFF77FFD0E
:102890004020FFF790FD0020FFF736FD0020FFF7F6
:1028A0003BFD0020FFF795FD0120FFF746FD10BD21
:1028B00010B5012205210220FDF790FF0020FFF74F
:1028C0003CFD8020FFF75AFD3F20FFF72DFD002043
:1028D000FFF74BFD0020FFF7F3FC0420FFF701FD9D
:1028E0000220FFF7CAFC0120FFF706FD0820FFF7D2
:1028F00034FD1020FFF754FDCF20FFF7E9FC03E083
:10290000C06C000075710000F120FFF740FD402011
:10291000FFF751FD0020FFF7F7FC0020FFF7FCFC5C
:102920000020FFF756FD0120FFF707FD10BD00B5A1
:1029300087B05CA207CA04AB07C30020FFF749FDBC
:10294000302028230522022100905948FFF718FE65
:102950000520FFF72EFCFFF737FF0520FFF729FCC6
:10296000FFF71CFF0520FFF724FC20200123402255
:10297000002100900846FFF788FE0520FFF719FCAC
:10298000202001234022002100901846FFF77DFE01
:102990000520FFF70EFCFFF7FCFE0520FFF709FC02
:1029A00001200021202301900093029103900B4607
:1029B0000A460846FFF7C4FE0520FFF7FAFB012090
:1029C00000211F22202300930192029103900B46C5
:1029D0000A460846FFF7B4FE0520FFF7EAFB02208F
:1029E00000210122202300930192029103900B46C3
:1029F00003220846FFF7A4FE0520FFF7DAFB0220BA
:102A000000211F22202300930192029103900B4684
:102A100003220120FFF794FE0520FFF7CAFB0220E6
:102A200000210122202300930192029103900B4682
:102A3000072204210120FFF783FE0520FFF7B9FBE1
:102A4000022000211F222023009301920291039073
:102A50000B46072204210020FFF772FE0520FFF736
:102A6000A8FBFFF796FE0520FFF7A3FBFF20FFF76B
:102A7000B0FC0520FFF79DFBFFF7EAFC0520FFF700
:102A800098FB0020FFF7A5FCFFF7FCFC0520FFF7F3
:102A900090FB2523032204A90120FFF753FD07B073
:102AA00000BD0000354E49564953494F4E000000C5
:102AB000006C0000F3B587B00020EB4908600846C1
:102AC000076805210120FDF7EAFD012205211046D6
:102AD000FDF784FE002205210120FDF76BFE1E207C
:102AE000FFF77AFA012205211046FDF763FE002266
:102AF00005210120FDF772FE002003460246052154
:102B000000900120FDF7C0FC05210120FDF79BFD91
:102B1000002410E0E007C00F00231A4605210090B2
:102B20000120FDF7B1FC00BFCF480068B842FBD0E0
:102B3000CD480768641C032CECD300246FE001200F
:102B400000231A4605210090FDF79EFC00BFC648F1
:102B50000068B842FBD0C4480768C44800680190C8
:102B6000002003460246052100900120FDF78CFC61
:102B700000BFBD480068B842FBD0BB480768BB48EF
:102B800001680198814204D2B84901980968461A3F
:102B900005E0B64801680198081AB5490E1A082CD4
:102BA00007D26806050EB348864237D30120054395
:102BB00034E0102C0BD206984006000E0690AD486B
:102BC00086422BD3012106980843069026E0182C54
:102BD0000BD205984006000E0590A64886421DD3EC
:102BE000012105980843059018E0202C0BD2049889
:102BF0004006000E04909F4886420FD3012104989E
:102C0000084304900AE003984006000E0390994898
:102C1000864203D30121039808430390641C282CA7
:102C20008DD3012000231A4605210090FDF72CFCCE
:102C300000BF8D480068B842FBD005210120FDF798
:102C40002EFD079905980870079904984870089810
:102C500005700899069848700295029D06982818F4
:102C6000C0B20290059902984018C0B2029004992F
:102C700002984018C0B2029003990298884202D18B
:102C8000012009B0F0BD0020FBE770B586B0044616
:102C90000D4629462046FFF70DFF0646002E34D08C
:102CA00020788021084000280CD020784006400E73
:102CB00020706078009023786FA2102101A802F0A4
:102CC00035F807E06078009023786FA2102101A802
:102CD00002F02CF801AA00210220FFF7B4FC68786A
:102CE00000902B786CA2102101A802F01FF801AA15
:102CF00000210320FFF7A7FC687800902B7862780A
:102D0000217869A0FDF7E6FA02E06EA0FDF7E2FA8D
:102D100006B070BD30B589B00025FFF772FB6BA21D
:102D200000210846FFF78FFC99E007A908A8FFF7E4
:102D3000C1FE0446002C3FD008A80078802108403E
:102D400000280FD008A800784106490E08A8017095
:102D50004078009008A803785FA2102102A801F033
:102D6000E5FF09E008A84078009008A803785EA273
:102D7000102102A801F0DAFF02AA00210220FFF7C9
:102D800062FC6846407F00906846037F42A21021A3
:102D900002A801F0CBFF02AA00210320FFF753FC99
:102DA0006846407F00906846037F08A84278017813
:102DB00051A0FDF78FFA02E042A0FDF78BFA08A8B8
:102DC000007832280FDD002D0DD1012202210020D4
:102DD000FDF7F0FC4FA200210720FFF734FC53A0C1
:102DE000FDF778FA012508A800782D280FDA002DC4
:102DF0000DD0002202211046FDF7DCFC51A200217B
:102E00000720FFF720FC55A0FDF764FA0025C82035
:102E1000FFF7E2F8FFF74AF9062800D120E0C820C2
:102E2000FFF7DAF8FFF742F9062800D118E0C820CA
:102E3000FFF7D2F8FFF73AF9062800D110E0C820D2
:102E4000FFF7CAF8FFF732F9062800D108E0C820DA
:102E5000FFF7C2F8FFF72AF9062800D100E064E77F
:102E600000BF09B030BD0000DC000010E000001021
:102E700080BB00001809000054656D703A202D25B4
:102E8000642E25642000000054656D703A2025648E
:102E90002E2564200000000048756D3A202025642E
:102EA0002E256420200000000D0A54656D703A2024
:102EB00025642E25642048756D3A2025642E2564EE
:102EC000200000000D0A6661696C000054656D7099
:102ED00020262048756D000054656D703A202D2520
:102EE000642E25642020000054656D703A2025640E
:102EF0002E256420200000000D0A54656D703A20D4
:102F000025642E256420202048756D3A20202564F4
:102F10002E25640054656D703E35302C205475723A
:102F20006E206F6E2046414E000000000D0A546571
:102F30006D703E35302C205475726E206F6E2046B9
:102F4000414E000054656D703C34352C2054757230
:102F50006E206F66662046414E0000000D0A5465E3
:102F60006D703C34352C205475726E206F6666206F
:102F700046414E0038B500240421009101226946E3
:102F80008820FEF763FC012269468820FEF748FC92
:102F90006846047805210091012269468820FEF7E1
:102FA00055FC012269468820FEF73AFC6846007805
:102FB00000020443C64800684443C64801682046EE
:102FC00002F0D2F80446204638BD08B50121009130
:102FD000012269468820FEF739FC012269468820D3
:102FE000FEF71EFC6846007808BD38B50446FFF7BA
:102FF000ECFF05460C21284688430546A0002843DF
:10300000C5B20121684601704570022269468820D8
:10301000FEF71CFC002C06D0012C08D0022C0AD094
:10302000032C10D10BE0AC48A94908600BE0AB4879
:10303000A749086007E0AA48A549086003E0A94835
:10304000A349086000BF00BF38BD08B5002168462D
:10305000017080214170022269468820FEF7F6FB4C
:103060009D489B490860012000049A49086008BDFA
:10307000704710B586B0044600210120FEF777FBAB
:10308000FFF7F6FFFFF7E1FF0120FFF7AEFFFFF7C5
:1030900071FF206094A214216846236801F046FE67
:1030A0006A4600210520FFF7CEFA92A02168FDF7BD
:1030B00011F906B010BD08B5002100910122694642
:1030C0008820FEF7C3FB012269468820FEF7A8FB93
:1030D0006846007808BD38B50546FFF7ECFF0446A2
:1030E0000C21204688430446A8002043C4B2002196
:1030F000684601704470022269468820FEF7A6FBEC
:1031000038BD38B50446FFF7D6FF0546AD08AD001B
:10311000284620430546002168460170457002227A
:1031200069468820FEF792FB002C06D0012C09D0BE
:10313000022C0CD0032C13D10EE0012000046549B1
:1031400008600DE0012000036249086008E0FF20EC
:1031500001306049086003E010205E49086000BF4C
:1031600000BF38BD38B5044600255A490968614397
:1031700008465749096801F0F7FF054602216846ED
:1031800001702804010E68464170022269468820B9
:10319000FEF75CFB38BD38B5044600254D4909688B
:1031A000614308464A49096801F0DEFF05460321EC
:1031B000684601702804010E684641700222694683
:1031C0008820FEF743FB38BD38B50546FFF7FDFE06
:1031D00004462021204688430446204628430446CE
:1031E0000121684601704470022269468820FEF77A
:1031F0002DFB38BD10B5FFF7E8FE04462020204027
:10320000400910BD38B5FFF7E0FE044620212046F6
:103210008843044641216846017044700222694691
:103220008820FEF713FB38BD38B5FFF744FF04468E
:10323000802120468843044600216846017044707E
:10324000022269468820FEF701FB4020044300214A
:10325000684601704470022269468820FEF7F6FA3B
:1032600038BD10B586B0FFF7CCF825A2002108467E
:10327000FFF7E9F900210120FEF779FAFFF7F8FEE0
:10328000FFF7E3FE0120FFF7B0FE1FA0FDF722F8D5
:1032900019E0FFF76FFE044623461CA2142168467E
:1032A00001F044FD6A4600210220FFF7CCF92146D7
:1032B00018A0FDF70FF8FA20FEF78EFEFEF7F6FED7
:1032C000062800D100E0E4E700BF06B010BD000012
:1032D0009000001094000010CD030000340F000097
:1032E000D03C000040F300004C696768743A202528
:1032F000640000004C696768743A2025642020004F
:103300004C696768740000000D0A000025642020E5
:1033100020200000256420200000000008B50921BD
:103320000091012269463A20FEF790FA012269468F
:103330003A20FEF775FA6846007808BDF8B50446ED
:103340000D46164600BFFFF7E9FFC007C00F002873
:10335000F9D006210091012269463A20FEF776FA5B
:10336000012269463A20FEF75BFA6846007840B2CF
:10337000207007210091012269463A20FEF766FA83
:10338000012269463A20FEF74BFA6846007840B2BF
:10339000287008210091012269463A20FEF756FA6A
:1033A000012269463A20FEF73BFA6846007840B2AF
:1033B0003070F8BD38B50446162168460170447077
:1033C000022269463A20FEF741FA38BD10B50520C1
:1033D000FFF7F0FF10BDF0B58DB004460D46164660
:1033E000002700200690059000210120FEF7BFF97C
:1033F000FFF7ECFF02AA03A904A8FFF79FFF6846A6
:10340000102141564F420C214156484206906846D1
:10341000082141564842059002AA03A904A8FFF7D3
:103420008DFF6846007CC01941B204916846017B5B
:103430000698081841B203916846017A0598081861
:1034400041B202916846007C20706846007B28707B
:103450006846007A30706846082141560C22825630
:10346000102300920191C3565BA2142107A801F01A
:103470005DFC07AA00210420FFF7E5F807A95BA07F
:10348000FCF728FF0DB0F0BD08B516210091012210
:1034900069463A20FEF7DAF9012269463A20FEF73A
:1034A000BFF96846007808BD70B505460024FFF7EF
:1034B000EBFF04460C21204688430446A800204325
:1034C000C4B22046FFF776FF70BD70B505460024F4
:1034D000FFF7DAFF0446A408A40020462843044668
:1034E0002046FFF767FF70BD70B58AB00024002545
:1034F00000260021039102910191FEF782FF3CA278
:1035000000210846FFF79FF800210120FEF72FF960
:10351000FFF75CFF01AA02A903A8FFF70FFF6846A7
:103520000C2141564C42082141564D42042141563E
:103530004E4201AA02A903A8FFF700FF6846007BDC
:10354000001941B203916846007A401941B20291D4
:1035500068460079801941B2019168460C23C35630
:1035600025A2142104A801F0E1FB04AA00210220F5
:10357000FFF769F868460C21415622A0FCF7AAFE25
:1035800068460823C35623A2142104A801F0CEFBE9
:1035900004AA00210320FFF756F868460821415687
:1035A0001FA0FCF797FE68460423C35620A21421EF
:1035B00004A801F0BBFB04AA00210420FFF743F894
:1035C0006846042141561DA0FCF784FEFA20FEF750
:1035D00003FD0AB070BD000041636320783A2564A2
:1035E00020793A2564207A3A25640000257300008A
:1035F000417869732D33000041636320783A2025B8
:10360000642020000D0A41636320783A2025642C51
:103610002020000041636320793A202564202000A7
:1036200041636320793A2025642C202000000000AB
:10363000416363207A3A202564202000416363209F
:103640007A3A2025642E2000F0B5A5B00446002566
:1036500000202290239024901F90209021900420FD
:10366000ED49088001204880ECA04860F2A0886005
:10367000F3A1E948C160F5A10161F7A14161002210
:1036800008210220FDF7AAF808210220FDF79DF885
:10369000FF2101310840002879D1F1A20021012049
:1036A000FEF7D1FFFEF7ADFE7822DB491031684608
:1036B000FCF7D8FDD8480FC801F056F8B9E0FEF77E
:1036C000F5FC0746012F04D0022F1FD0052F1CD177
:1036D0003AE0D1484088012805DDCF484088401EA7
:1036E000CD49488003E0CC480088CB494880782207
:1036F000C94910316846FCF7B5FDC7480FC801F04D
:1037000033F8FF20F530FEF767FC91E0C2484088AF
:10371000C1490988884205DABF484088401CBE4933
:10372000488002E00120BC4948807822BA49103123
:103730006846FCF797FDB8480FC801F015F8FF2060
:10374000F530FEF749FC73E0B3488078C64908704D
:10375000FEF757FEC5A200210846FEF774FFC7A278
:1037600000210220FEF76FFFFF20F530FEF734FC4A
:1037700037E00027FEF79AFC07466420FEF72CFC92
:10378000032F05D0042F10D0052F29D11AE05AE0BD
:103790006D1C2B46BBA20A2122A801F0C7FA22AA5F
:1037A00000210220FEF74FFF1AE06D1E2B46B5A246
:1037B0000A2122A801F0BAFA22AA00210220FEF76B
:1037C00042FF0DE0002D03DB4920B149087003E002
:1037D0004F20AF4908706D420020AE49087000BF0D
:1037E00000BFAC4800780028C3D17320207074203B
:1037F00060703A20A0707220E07002202071A4480E
:103800000078607198480078A071E571082221461F
:103810001FA801F03FFC002604E01FA9885D00F00E
:10382000A8FA761C082EF8DB00209B49087000BF20
:1038300000BF99480078002800D040E70120954952
:1038400008709549087025B0F0BD10B501460C7898
:10385000641EE2B2002305E0CC5CAA2C01D1541C0A
:10386000E2B25B1C0C789C42F6D8087804E08C5CD1
:103870002418E0B2541EE2B2002AF8D110BD70B58F
:1038800004460D46002C2BD1002207210220FCF714
:1038900091FF00BF8148C06802210840002805D080
:1038A0007E48C06810210840002801D0012000E0B7
:1038B00000200028EED17948856000BF7748C068B5
:1038C000102108400028F9D100BF7448C0681421B5
:1038D00008400428F9D1012207210220FCF76AFFE1
:1038E0006E48806880B270BDF3B581B00D4680220D
:1038F00008210020FDF759FD0120FEF76DFB002295
:1039000007210220FCF756FF0198FFF79EFF009069
:10391000AA210020FFF7B3FF0120FEF75DFB002482
:10392000BB210020FFF7ABFF2855641C0120FEF7E8
:1039300053FB00270AE00198C15D0020FFF79FFFBD
:103940002855641C0120FEF747FB7F1C0198007876
:10395000B842F0D800200099FFF791FF2855641C69
:10396000FF20F530FEF738FB01202870FEF734FB0E
:1039700000210846FFF783FFAA2806D0022208216B
:103980000020FDF712FD0020FEBD0120FEF724FB04
:1039900000210846FFF773FFBB2806D0022208214A
:1039A0000020FDF702FD0020EEE70120FEF714FBEA
:1039B00001984078012806D0202806D0212806D07A
:1039C000222808D105E00B2607E0072605E013268C
:1039D00003E0032601E0072600BF00BF0027002404
:1039E00009E000210846FFF74AFF28550120FEF7AD
:1039F000F3FA7F1C641CB742F3D301220721022093
:103A0000FCF7D8FE0120FEF7E7FA02220821002089
:103A1000FDF7CBFCE0B2B7E7C404001043686F6960
:103A2000636520796F757220676F6F642020202096
:103A30002020202000000000312E4170706C6500B5
:103A4000322E42616E616E6100000000332E4F72B3
:103A5000616E676500000000342E4772617065007A
:103A6000524649440000000099000010496E7075EC
:103A700074206E756D626572000000006E756D20B9
:103A80003A2030006E756D203A2025642020000019
:103A9000980000109A0000109B00001000000440E5
:103AA000F0B589B00746142104A801F05BFB0022A1
:103AB00008210220FCF792FE08210220FCF785FE77
:103AC00000283ED1C820FEF787FA04A91E48FFF758
:103AD0000BFF0390002400250FE06C2D0CDC04A8E4
:103AE000035D1AA2042101A801F020F9A81D85B2E6
:103AF000A81D85B2A81D85B2641C03988442ECD32E
:103B000004A8FFF7A2FE06466846007C401C04A9F4
:103B1000095CB14205D06846007C04A9085CB0424B
:103B20000DD1002404E0A01C04A9085C3855641CD5
:103B3000042CF8DB00203855012009B0F0BD00202E
:103B4000FBE70020F9E70000A2730000253032589F
:103B50002000000070B504460D46002211460220E8
:103B6000FCF728FEE8008022104362001043014663
:103B70000120FDF7CAFC00210120FDF7C6FCC6B2FA
:103B8000012200210220FCF715FE304670BD10B561
:103B900002210020FFF7DEFF0446A406A40E042C39
:103BA00013D100210846FFF7D5FFFE49FE4A1288CF
:103BB0008854FD480088401CFB490880084600885E
:103BC000802807DB0020088004E000210846FFF77A
:103BD000C1FF044602210120FFF7BCFF0446A406F2
:103BE000A40E042C13D100210120FFF7B3FFEF49ED
:103BF000EF4A12888854EE480088401CEC4908803F
:103C000008460088802807DB0020088004E00021A7
:103C10000120FFF79FFF044610BD70B504460D4616
:103C20001646002211460220FCF7C4FDE80062009F
:103C3000104301460120FDF768FC31460120FDF7E5
:103C400064FC012200210220FCF7B4FD70BDF8B530
:103C500005460E46BF2203212846FFF7DEFF02215C
:103C60002846FFF777FF0446204610210843024606
:103C700002212846FFF7D1FF032211462846FFF70D
:103C8000CCFF01212846FFF765FF0446204610219E
:103C90008843024601212846FFF7BFFF042128463A
:103CA000FFF758FF0446204680218843024604213E
:103CB0002846FFF7B2FF832203212846FFF7ADFF16
:103CC0003146E120000301F04FFA84B2E2B2002154
:103CD0002846FFF7A2FF221201212846FFF79DFF89
:103CE000032211462846FFF798FF00212846FFF7D8
:103CF00031FF002203210846FCF770FD0020034637
:103D00000246032100900846FCF7BEFB032108464B
:103D1000FCF799FC012211462846FFF77EFF00219F
:103D20002846FFF717FFF8BD70B505460C4600BFE3
:103D300005212846FFF70EFF202108400028F7D074
:103D4000224600212846FFF768FF70BD10B50446E3
:103D500021460020FFF7E8FF10BD10B5044604E03F
:103D600021780020FFF7E0FF641C20780028F7D1BD
:103D700010BD10B5044621460120FFF7D5FF10BD48
:103D800010B5044604E021780120FFF7CDFF641C44
:103D900020780028F7D110BD0246002A17D18548A7
:103DA0000088814B1B88984229D07E48814B1B8814
:103DB000C05C08707F480088401C7E4B1880184605
:103DC0000088802801DB00201880012070477A4895
:103DD0000088774B1B88984211D07448764B1B881B
:103DE000C05C087074480088401C734B18801846EB
:103DF0000088802801DB002018800120E6E70020F1
:103E0000E4E710B5044621460020FFF7C5FF10BDCA
:103E100010B5044621460120FFF7BEFF10BD70B566
:103E2000C6B00120FDF7CAF9022208210120FDF7E2
:103E3000BCFAE12149020120FFF709FF032120A874
:103E40000182012141825DA025905EA0269063A1A0
:103E500024A8C16066A10161782228A96846FCF700
:103E600001FA24A80FC800F07FFC0026FA20FEF714
:103E7000B3F80FE11FA8FCF7E7FD002803D018A84E
:103E8000007FFFF776FF1FA8FFF7C2FF002860D072
:103E900018A8007FFCF7AFFDB01D86B2782E00DDBC
:103EA0000026002404E020A9601C085C0855641C5E
:103EB000072CF8D318A8007F20A9085520A800785F
:103EC000462821D120A8407841281DD120A88078FB
:103ED0004E2819D120A8C078202815D120A8007913
:103EE0004F2811D120A840796E280DD120A88079C3
:103EF000202809D120A8C079202805D1002202213C
:103F00001046FCF757FC24E020A80078462820D172
:103F100020A8407841281CD120A880784E2818D1AC
:103F200020A8C078202814D120A800794F2810D1CB
:103F300020A8407966280CD120A88079662808D16D
:103F400020A8C079202804D1012202210020FCF7FA
:103F500031FCFEF7ABF80546012D06D0022D51D0FD
:103F6000052D6CD0062D73D18EE020A8408A012843
:103F700006DD20A8408A401E81B220A8418202E0CE
:103F800020A8018A4182782228A96846FCF76AF9AC
:103F900024A80FC800F0E8FB0026FA20FEF71CF862
:103FA00077E000004C0500109C000010CC050010CC
:103FB000A00000109E000010A20000105A69674285
:103FC00065650000312E53656E642048656C6C6F2A
:103FD000205A69674265652100000000322E536552
:103FE0006E64205475726E206F6E2046414E000044
:103FF000332E53656E64205475726E206F66662092
:1040000046414E0020A8418A008A814206DA20A853
:10401000408A401C81B220A8418202E0012020A9F0
:104020004882782228A96846FCF71CF924A80FC802
:1040300000F09AFB0026FA20FDF7CEFF29E020A829
:10404000408A012805D002280AD0032816D10EE0A4
:104050001EE09EA0FFF794FEA0A0FCF73BF90EE047
:10406000A4A0FFF78DFEA6A0FCF734F907E0AAA0F4
:10407000FFF786FEABA0FCF72DF900E000BF00BF04
:10408000FA20FDF7A9FF04E0002020A9488200E003
:1040900000BF00BF20A8408A002800D0EAE646B052
:1040A00070BD70B5C6B00120FDF788F80222082166
:1040B0000120FDF77AF9E12149020020FFF7C7FD51
:1040C000032120A80182012141829CA025909DA06E
:1040D0002690A2A124A8C160A5A10161782228A9E7
:1040E0006846FCF7BFF824A80FC800F03DFB002687
:1040F000FA20FDF771FFE1E01FA8FCF7A5FC0028FE
:1041000007D018A8007FFFF721FE18A8007FFCF752
:1041100072FC1FA8FFF775FE002860D018A8007F6A
:10412000FCF769FCB01D86B2782E00DD0026002465
:1041300004E020A9601C085C0855641C072CF8D317
:1041400018A8007F20A9085520A80078462821D16A
:1041500020A8407841281DD120A880784E2819D168
:1041600020A8C078202815D120A800794F2811D187
:1041700020A840796E280DD120A88079202809D167
:1041800020A8C079202805D1002202211046FCF782
:1041900011FB24E020A80078462820D120A84078F0
:1041A00041281CD120A880784E2818D120A8C0789A
:1041B000202814D120A800794F2810D120A84079B8
:1041C00066280CD120A88079662808D120A8C0795B
:1041D000202804D1012202210020FCF7EBFAFDF790
:1041E00065FF0546012D06D0022D1DD0052D35D0C9
:1041F000062D58D153E020A8408A012806DD20A8CA
:10420000408A401E81B220A8418202E020A8018A93
:104210004182782228A96846FCF724F824A80FC810
:1042200000F0A2FA00263FE020A8418A008A8142DD
:1042300006DA20A8408A401C81B220A8418202E010
:10424000012020A94882782228A96846FCF70AF8AC
:1042500024A80FC800F088FA002625E020A8408A8C
:10426000012804D0022809D0032815D10DE046A06A
:10427000FFF773FD48A0FCF72DF80EE01DA0FFF737
:104280006CFD1FA0FCF726F807E023A0FFF765FDF3
:1042900024A0FCF71FF800E000BF00BF04E00020EE
:1042A00020A9488200E000BF00BF002D06D020A852
:1042B000408A002802D0FA20FDF78EFE20A8408A0E
:1042C000002800D018E746B070BD000048656C6C4F
:1042D0006F205A6967426565212020000D0A5365E9
:1042E0006E642048656C6C6F205A69674265652171
:1042F0002020000046414E204F6E2020000000008C
:104300000D0A53656E64205475726E206F6E2046E0
:10431000414E20200000000046414E204F6666209E
:10432000200000000D0A53656E64205475726E20E3
:104330006F66662046414E202000000052532D3407
:1043400038350000312E53656E642048656C6C6F03
:104350002052532D3438352100000000322E547580
:10436000726E206F6E206F746865722046414E0039
:10437000332E5475726E206F6666206F7468657296
:104380002046414E0000000048656C6C6F2052537F
:104390002D343835212000000D0A53656E64204805
:1043A000656C6C6F2052532D34383521200000008D
:1043B00010B5002819DAD34A03071B0F083B9B08E6
:1043C0009B00D2588307DC0EFF23A3409A434B0780
:1043D0001B0E8407E40EA3401A43CA4B0407240FA4
:1043E000083CA408A4001A5118E0C74A03231B0282
:1043F000D21883089B00D2588307DC0EFF23A3400A
:104400009A434B071B0E8407E40EA3401A43BE4B8E
:10441000032424021B198408A4001A5110BD08B5F6
:104420006846FFF7F5FC00283DD068460078A028D4
:1044300016D008DC80282FD0812827D0902819D0CA
:1044400091282FD112E0A12804D0B82816D0BF2877
:1044500028D117E0002211460320FCF7ABF921E038
:10446000012200210320FCF7A5F91BE0012000F048
:10447000DFF917E0002000F0DBF913E00820FDF77A
:1044800064FE0FE02020FDF760FE0BE00022022119
:104490001046FCF78FF905E0012202210020FCF70D
:1044A00089F900BF00BF08BD30B587B004460025BC
:1044B000182101A800F056FE73202070742060704F
:1044C0003A20A0706520E07002202071182200219F
:1044D00001A800F020FE1822214601A8FBF7C2FE29
:1044E00000BF05E001A9485DFFF743FC681CC5B2A9
:1044F000182DF7DB07B030BD10B50446E11D601D77
:10450000FEF7C3FB22460B32511E481EFEF763FF27
:1045100020460C30FEF7ADFD20461430FDF74DFC73
:1045200020461030FDF781FC10BD10B586B0142177
:1045300001A800F017FE00240A2416E0234673A207
:10454000142101A800F0F2FBFDF75BFF72A200212D
:104550000846FEF778F801AA00210220FEF773F85A
:104560007D20C000FDF738FD641E002CE6DA06B0A1
:1045700010BD10B5FBF70BFFFBF772FF0320FBF735
:1045800052FF6A480069C008C000684908610846CF
:1045900000690121084365490861012200210320C7
:1045A000FCF71CF9012200210320FCF703F901228A
:1045B00011460320FCF712F9012211460320FCF7F3
:1045C000F9F8012202210020FCF708F9012202215A
:1045D0000020FCF7EFF855484030C06BC008C00021
:1045E00052494031C8630846C06B012108434F4916
:1045F0004031C863012211461046FCF7EFF8FDF781
:1046000089FD2020FDF7A1FD494C4A48844200D98C
:104610000FE02002000A401E4749486107210020A0
:10462000C043FFF7C5FE00204349886107200861A9
:1046300000BF0020FCF7C2FD022208210020FCF789
:10464000B4FEFEF735F9E1204002FCF760F90221E3
:104650001520FFF7ADFE39A0FBF73CFEFA20FDF771
:10466000BBFC0120FCF7AAFD022208210120FCF777
:104670009CFEE12149020120FFF7E9FAFFF755FF0F
:1046800010BD88B0FFF775FF11E06846FEF7DCFF4C
:1046900031480068022808D902A8FFF72DFF02A8B8
:1046A000FFF702FF00202C490860FFF7B8FEECE797
:1046B0002A480068401C2949086008460068FF2114
:1046C000F53188420AD126480078401C24490870F8
:1046D00008460078C006C00E087012E01F48006847
:1046E0007D21C90088420CD31B480068401C1A4930
:1046F00008601C480068401C1A49086000201749DF
:10470000086070471CED00E000E100E074696D6531
:10471000206973202564200057616974696E6720E1
:10472000666F7220313073200000000000400440AA
:1047300080BB0000FFFFFF0000E000E00D0A0D0A53
:1047400046535F3131433134204D61696E204D65F0
:104750006E750D0A00000000A4000010B0000010EB
:10476000AC000010A80000100FB470B56946498A6B
:10477000481E062100F002FD85B2681C0621484350
:1047800084B26946088AA04201DD052606E0694632
:10479000098A481E062100F0F1FC8EB2FDF731FEB9
:1047A00000210846059AFDF74EFF5023002266219E
:1047B0001046FDF70CFF672300226C211046FDF721
:1047C00006FF2023002272211046FDF700FF284635
:1047D0003130C3B2002278211046FDF7F8FE0024E4
:1047E00020E06846418A062068430019401C814247
:1047F0000BD10621694309198B0006A9CA58A11CCF
:10480000C8B20121FDF71FFF0AE00621694309191B
:104810008B0006A9CA58A11CC8B20021FDF713FFDE
:10482000601C84B2B442DCDD70BC08BC04B0184724
:1048300010B50446002C0ED0012C10D17F20D04999
:10484000C8600122CF4801681046FCF7AEFA01208B
:10485000FCF7E9F903E00120FCF7EFF900BF00BF26
:1048600010BD10B5C0B0022110A8018701214187F9
:10487000C5A01F90C5A02090C8A11EA8C160782225
:1048800022A96846FBF7EEFC1EA80FC8FFF76CFFD5
:10489000FA20FDF7A1FB6BE0FDF708FC0446012CB4
:1048A00006D0022C1CD0052C33D0062C55D150E05C
:1048B00010A8408F012806DD10A8408F401E81B24D
:1048C00010A8418702E010A8018F4187782222A911
:1048D0006846FBF7C7FC1EA80FC8FFF745FF3DE081
:1048E00010A8418F008F814206DA10A8408F401C2B
:1048F00081B210A8418702E0012010A948877822E0
:1049000022A96846FBF7AEFC1EA80FC8FFF72CFFD4
:1049100024E010A8408F012802D0022816D10AE016
:10492000002211460320FBF745FF0022012103204E
:10493000FBF740FF0BE0012200210320FBF73AFFC9
:10494000012211460320FBF735FF00E000BF00BF46
:1049500004E0002010A9488700E000BF00BF002C41
:1049600006D010A8408F002802D0FA20FDF734FBB3
:1049700010A8408F00288FD140B010BD10B5C0B036
:10498000022110A801870121418788A01F9089A0DA
:1049900020908DA11EA8C160782222A96846FBF74D
:1049A00061FC1EA80FC8FFF7DFFEC820FDF714FB4F
:1049B0005DE0FDF77BFB0446012C06D0022C1CD0E9
:1049C000052C33D0062C47D142E010A8408F012897
:1049D00006DD10A8408F401E81B210A8418702E07A
:1049E00010A8018F4187782222A96846FBF73AFC7C
:1049F0001EA80FC8FFF7B8FE2FE010A8418F008F48
:104A0000814206DA10A8408F401C81B210A841876D
:104A100002E0012010A94887782222A96846FBF706
:104A200021FC1EA80FC8FFF79FFE16E010A8408FBC
:104A3000012802D0022808D103E00120FFF7F8FE88
:104A400004E00020FFF7F4FE00E000BF00BF04E038
:104A5000002010A9488700E000BF00BF002C06D04E
:104A600010A8408F002802D0FA20FDF7B5FA10A850
:104A7000408F00289DD140B010BD10B5C0B00221BC
:104A800010A801870121418754A01F9054A02090B5
:104A900057A11EA8C160782222A96846FBF7E2FB55
:104AA0001EA80FC8FFF760FEFA20FDF795FA61E037
:104AB000FDF7FCFA0446012C06D0022C1CD0052C74
:104AC00033D0062C4BD146E010A8408F012806DDDC
:104AD00010A8408F401E81B210A8418702E010A8A4
:104AE000018F4187782222A96846FBF7BBFB1EA8ED
:104AF0000FC8FFF739FE33E010A8418F008F8142C5
:104B000006DA10A8408F401C81B210A8418702E04D
:104B1000012010A94887782222A96846FBF7A2FB4A
:104B20001EA80FC8FFF720FE1AE010A8408F01282A
:104B300002D002280CD105E0002202211046FBF72A
:104B400039FE06E0012202210020FBF733FE00E0DF
:104B500000BF00BF04E0002010A9488700E000BFAC
:104B600000BF002C06D010A8408F002802D0FA20E9
:104B7000FDF732FA10A8408F002899D140B010BD3F
:104B800000800140B40000104C454400312E5475A3
:104B9000726E206F6E204C4544000000322E54751A
:104BA000726E206F6666204C45440000537065614C
:104BB0006B657200312E5475726E206F6E205370CB
:104BC00065616B6572000000322E5475726E206F45
:104BD000666620537065616B6572000046414E0049
:104BE000312E5475726E206F6E2046414E000000CB
:104BF000322E5475726E206F66662046414E00005C
:104C000010B534480068401C32490860012100207A
:104C1000FBF771FD0446002C08D02F480068401CAB
:104C20002D49086001210020FBF798FD10BD10B54B
:104C30002A480068401C2949086001210846FBF702
:104C40005AFD0446002C08D025480068401C244921
:104C5000086001210846FBF781FD05210120FBF7D3
:104C60004AFD00280CD01F4880691F4908601F4872
:104C70000068401C1D49086005210120FBF76EFDFE
:104C800010BD10B508210220FBF735FD002808D023
:104C900017480068401C1649086008210220FBF7ED
:104CA0005DFD10BD10B502210320FBF724FD002897
:104CB00003D002210320FBF751FD03210846FBF737
:104CC0001AFD002805D0FEF762FF03210846FBF716
:104CD00045FD10BDBC000010C0000010C400001055
:104CE000C800001000E000E0E0000010DC00001050
:104CF000D00000107CB51D4616460C00009001D077
:104D00000019401E084B7B442A46694601903046F4
:104D100000F035FF002C054603D06946002000F066
:104D200041FF28467CBD0000A50E00000FB47CB5F5
:104D30000C0009AA009001D00019401E094B7B44C9
:104D400069460190089800F01AFF002C054603D030
:104D50006946002000F026FF28467CBC08BC04B051
:104D6000184700006D0E000070B5044685690068A4
:104D7000C10601D5302600E02026C00707D070BD4F
:104D800062683046A1689047206A401C20626D1E10
:104D9000F6D570BD70B5044685690078C00707D1A7
:104DA00070BD6268A16820209047206A401C206284
:104DB0006D1EF6D570BD70B50C460546012A05D0AE
:104DC0002878800600D5EA69002302E0012305E087
:104DD0005B1C934202D2E05C0028F9D1A869E61876
:104DE000C01AA861286AC01828622846FFF7BCFFCD
:104DF00004E06A682078A968641C9047B442F8D33C
:104E00002846FFF7C7FF70BDF7B500257529106864
:104E1000009914A611D000F02FFE002802DA4042BB
:104E200011A608E0009909688A0701D50FA602E0DB
:104E3000490704D50EA6012501E000F026FE009FDB
:104E40000024243704E000F0B3FF30313955641CEE
:104E50000028F8D12B4632462146009800F01EFE6D
:104E6000FEBD0000000000002D0000002B0000002F
:104E700020000000F8B50F460188090502D5224C34
:104E80007C4402E0204C7C440E340546002124354D
:104E900008E016071209360FA65D6E541E0732434E
:104EA0001B09491C16461E43F3D1224604780023F1
:104EB000240705D5702F06D0002901D00223113216
:104EC00000F0ECFDF8BD01231032F9E770B504469F
:104ED0000D462146106800F0D8FD00230246294601
:104EE0002046FFF7C7FF70BDD21DD308DB000CCBF7
:104EF000C0E730B40368202412682343036008230A
:104F0000C36130BC0023B5E75C250000F3B504465F
:104F1000002081B020622046E1688847002872D0D6
:104F2000252802D06268A168ABE0594F00267F4473
:104F30002046E16888472028054608DB312D06D247
:104F4000781920380078002801D00643F0E7B00730
:104F500001D5042086430020E0610746A0612A2D88
:104F60000AD0284601F06AFD002827D0B8000019B1
:104F7000303D0090856119E00298BA00121902C80C
:104F8000916102902046E1688847012F054617D1BC
:104F9000E06900281FDA202086431CE000980A21DF
:104FA0008069484300994019303888612046E1689B
:104FB0008847054601F042FD0028EFD1012F0AD0B5
:104FC0002E2D08D12046E16888470546202006435B
:104FD0007F1C022FC3DBA069002803DA4042A061D6
:104FE00001200643F00701D0102086436C2D0BD022
:104FF000682D09D04C2D3CD06A2D38D0742D38D076
:105000007A2D36D016E040E0E1682F4620468847EA
:10501000B842054609D16C2F29D001208002E168F1
:10502000064320468847054604E06C2F1DD0FF202C
:1050300001300643002D28D028464138192803D8CE
:105040000120C00206432035204626602946029AE8
:105050001646FBF773F8002810D001280BD0F61D78
:10506000F008C0000830029055E74020E1E78020BA
:10507000D5E70020D3E7361D02964CE76268284644
:10508000A1689047206A401C44E7206AFEBD0000EA
:10509000D6240000F8B5042A2CD3830712D00B784D
:1050A000491C0370401C521E83070BD00B78491C0F
:1050B0000370401C521E830704D00B78491C0370F8
:1050C000401C521E8B079B0F05D0C91ADF002023FE
:1050D000DE1B08C90AE0FBF7C5F8F8BD1D4608C984
:1050E000FD401C46B4402C4310C0121F042AF5D2C8
:1050F000F308C91A521EF0D40B78491C0370401CE7
:10510000521EEAD40B78491C0370401C012AE4D4D7
:1051100009780170F8BDD2B210B513029A181304C1
:105120009A1800F00EF810BD01E004C0091F042910
:10513000FBD28B0701D50280801CC90700D002700A
:10514000704700290BD0C30702D00270401C491ED3
:10515000022904D3830702D50280801C891EE3E75D
:105160000022EEE70022DFE7002203098B422CD366
:10517000030A8B4211D300239C464EE003460B43A7
:105180003CD4002243088B4231D303098B421CD309
:10519000030A8B4201D394463FE0C3098B4201D3FB
:1051A000CB01C01A524183098B4201D38B01C01A33
:1051B000524143098B4201D34B01C01A52410309AA
:1051C0008B4201D30B01C01A5241C3088B4201D359
:1051D000CB00C01A524183088B4201D38B00C01A06
:1051E000524143088B4201D34B00C01A5241411A2D
:1051F00000D201465241104670475DE0CA0F00D010
:105200004942031000D34042534000229C46030908
:105210008B422DD3030A8B4212D3FC22890112BA8E
:10522000030A8B420CD3890192118B4208D3890166
:1052300092118B4204D389013AD0921100E089097E
:10524000C3098B4201D3CB01C01A524183098B425F
:1052500001D38B01C01A524143098B4201D34B0148
:10526000C01A524103098B4201D30B01C01A5241AB
:10527000C3088B4201D3CB00C01A524183088B4232
:1052800001D38B00C01A5241D9D243088B4201D3BB
:105290004B00C01A5241411A00D2014663465241A6
:1052A0005B10104601D34042002B00D549427047A5
:1052B00063465B1000D3404201B50020C046C046A3
:1052C00002BD00000246C80FC00781434B0030B545
:1052D0004B405B009B0D20D01923DB06C91801232E
:1052E0001B05994220DB0324A40704251346AB4089
:1052F0000BD3002B04D1EB0613409B00E34204D4F4
:1053000001246407002312195941FF231B05994208
:105310000BD2C9000143500F09E0CB0204D5014371
:105320000803024305D0054830BDFF21C9050843E5
:1053300030BD084607210905884330BD0000C07F05
:10534000F0B51FB4F84F0E091D09BC463E403D4064
:105350000C46B7435C408CB0002F7DD06746AF430E
:10536000FBD0002D79D0002EFCD0E20F3243521B2F
:10537000FF24A40412190892420DCD02C7020E9810
:105380001543420DD9021143C20260030543014394
:10539000080C0195150CAC4605040B46AB430A9569
:1053A00065462D04AA430995E04D040A7D4464191D
:1053B000803C257806466E4301247619E405A61B39
:1053C0007543ED0C490BAD1C69434919A401611AE1
:1053D0000E0CB6463604B143694376466E43090C5B
:1053E000711889090591F90700D0A100049101996C
:1053F0007F08CC0727434C08059DE10B4D432D0C3E
:1054000029466646754302950D4645432E46029D44
:105410007D1BB44100950D465D4301942C0C2F0477
:105420000D465543AE462D0C3D43029503947546FB
:10543000049C2D04641B049406D2029C039D641CEE
:10544000002675410395029401AC70CC009F7D1B32
:10545000B4410904009501E03AE15EE1079101944D
:105460000599A4086143090C0C464443650BE70405
:1054700064464C43A646640B3C4303950294744631
:10548000049DE4042C1B049406D2029C039D641C1E
:10549000002675410395029401AC70CC009F7D1BE2
:1054A000B44101940C465C430095650FE7000C463F
:1054B0005443A646640F3C43039502947446049DEE
:1054C000E4002C1B049406D2029C039D641C00265D
:1054D00075410395029401AC70CC009F7D1BB441D3
:1054E000AE09AF06049DC900AD092F43049DA40673
:1054F000AD060495079D344369180791059DE10B9E
:105500004D432D0C29466646754302950D4645438D
:105510002E46029D7D1BB44100950D465D430194CE
:105520002C0C2F040D465543AE462D0C3D430295E1
:1055300003947546049C2D04641B049406D2029CBB
:10554000039D641C002675410395029401AC70CC48
:10555000009F7D1BB44101948C050694079C890A29
:10556000611800950791019C0599A4086143090CF5
:105570000D464543680BEF040D46644665436C0BCE
:105580003C43049FED047D1BAC4602D20025641C05
:105590006841009E019D371B85410846584301958F
:1055A0000C46460FC5005443600F28436546E4008F
:1055B0002C1B02D20025401C6E41019D3F1AB541B3
:1055C0002846BD09800628438446A009BF064E022E
:1055D0000699A40676180743079D002068410A999A
:1055E000079019430020099B00906046FF19134360
:1055F0004041E20F64003A43A4460446D71A8C4166
:10560000A04203D90120009020463A46C70F9418C3
:1056100040416246D20F2243644664000494009CD9
:10562000BE466400D71AA446044602978C417746CA
:10563000002F01D1A04204D96046401C8446029A42
:105640002046C40FA64694184041049A0546D20F3E
:10565000224364466400D31A8D417146002901D16A
:10566000A84202D928461A46641C10430122002889
:1056700000D0164361020020079B044689195C4153
:105680000223002C02DB491813466441089DCE0A10
:105690002D145D194B056705E10A2C050D190899B4
:1056A0003E43C9076940002B08D0934006D300222F
:1056B000761C5141002B01D1760876001C4A002D42
:1056C00043DB154241D0AA433FD0304611B0F0BD74
:1056D0000E4607184E41174D7A42B5411AD30E9A1D
:1056E0001D4696185D41134A7642AA4112D3012203
:1056F00052054D00D5420AD15C00D4420AD04B403D
:1057000002D592021143E1E749004908DEE7E10FC3
:10571000C90718E000200849D8E7054801420DD123
:105720000342F7D0F3E700000000FF076920000004
:105730000000F07F0000E0FF0000F87F11482146E4
:105740000143C01241400020C0E70123089A9B0694
:105750009A4205DC032252078918C90FC907B5E729
:10576000052252078918074A1143D2125140ADE76A
:105770005940504010B54B40424059405040FFF70F
:10578000DFFD10BDFFFFFF7F1F22030C02D10F22A0
:10579000000402D0030E03D004E00020014670474D
:1057A0000002083A030F01D10001121F830F01D13B
:1057B0008000921E002801DB4000521E1205511885
:1057C0004205C012411810467047C10FC90700D0EA
:1057D0004042012292071143D6E701218907D3E70E
:1057E000F0B5934C0D092646AC46AE430D465D40E0
:1057F00087B0002E7ED01E092746B743FAD06746F1
:105800002740ED0F3D43264075D024012142FBD0B7
:105810007419FF25AD04641B0494CC02D902012342
:105820001B05C90A1943E40A1C430F01110F240187
:10583000030F1C43050116010F43A20B2D09900312
:105840008443A90B88038543BB0B98038743360920
:10585000BC46B00B8703BE430F46474303972F4612
:1058600077430296BE46029F4E19C71906967E439D
:105870000597039FF71B7646BE1B77463F010097AF
:105880000196039FB60BF619B646019E009FB6041B
:10589000BF1902D37646761CB64676467600002FB0
:1058A00001D001273E4367467D43AE46029F254611
:1058B0007D4300956D00AE1975466D00AF196546C4
:1058C0005D19069E03956E437546751BAE46151908
:1058D000059E02956E43009D5943761B75466D1AD1
:1058E00050438646301A05900195F80606D07D098A
:1058F000012001E07DE079E0054300E07D090E0A2A
:10590000090600204D19464100967646310A3706B1
:10591000009E7F1971418E4601998D0D8E02714650
:10592000F6194D41AE46059DA90DAF027546BE194B
:1059300069415A4363465C43039D029B6B439B1A38
:105940001D1BAB0EAD016D184341110B1205521911
:105950005941230A2406A5195341934200D2491CF8
:1059600001225202914203D315220226F64302E09D
:1059700014220326F6432024A41AA1401F46A74060
:10598000BC461F46D7400F432946D14062461143CB
:10599000049A1214B2181305049EFB18F6077340FC
:1059A000A54009D00124A54006D30024491C634129
:1059B000002D01D1490849001E4CA24203D20846DD
:1059C000194607B0F0BD012204999206914207DB07
:1059D00005214907184A59181143D2125140F0E7DE
:1059E000032149075918C90FC907EAE70020E90749
:1059F000E7E706180C464C4110487642A04114D304
:105A000094181A465A410D48644290410DD3012022
:105A100049004005814208D35900814205D3E90F6E
:105A2000074AC90700201143CBE700200549C8E712
:105A30000000FF07FE070000FFFFFF7F0000E0FF00
:105A40000000F07F0000F87F01460002CA1504D074
:105A50000123DB071843002A09DB9E239A1A01D48D
:105A6000D0407047FF2248001206904201D9002022
:105A70007047C817C043704709684A0501D540B24E
:105A80007047C905FCD500B2704709684A0501D5C1
:105A9000C0B27047C905FCD580B27047FFB5044657
:105AA0000D4681B0243000902168880604D510226C
:105AB000E0699143216000E00120A84201DD471B1D
:105AC00000E000270498A1697A191018081AA0614B
:105AD0002078C00602D42046FFF746F9002608E0E9
